:0200000460009A
:100000004643464200000156000000000103030081
:1000100000000000000000000000000000000000E0
:1000200000000000000000000000000000000000D0
:1000300000000000000000000000000000000000C0
:1000400000000000010408000000000000000000A3
:100050000000800000000000000000000000000020
:100060000000000000000000000000000000000090
:100070000000000000000000000000000000000080
:10008000EB04180A063204260000000000000000FD
:10009000050404240000000000000000000000002F
:1000A0000000000000000000000000000000000050
:1000B0000604000000000000000000000000000036
:1000C0000000000000000000000000000000000030
:1000D00020041808000000000000000000000000DC
:1000E0000000000000000000000000000000000010
:1000F0000000000000000000000000000000000000
:10010000D8041808000000000000000000000000F3
:100110000204180804200000000000000000000095
:1001200000000000000000000000000000000000CF
:10013000600400000000000000000000000000005B
:1001400000000000000000000000000000000000AF
:10015000000000000000000000000000000000009F
:10016000000000000000000000000000000000008F
:10017000000000000000000000000000000000007F
:10018000000000000000000000000000000000006F
:10019000000000000000000000000000000000005F
:1001A000000000000000000000000000000000004F
:1001B000000000000000000000000000000000003F
:1001C000000100000010000001000000000000001D
:1001D000000001000000000000000000000000001E
:1001E000000000000000000000000000000000000F
:1001F00000000000000000000000000000000000FF
:10020000FFFFFFFFFFFFFFFFFFFFFFFFFFFFFFFFFE
:10021000FFFFFFFFFFFFFFFFFFFFFFFFFFFFFFFFEE
:10100000D10020434D1600600000000000000000E9
:10101000201000600010006000100460000000005C
:1010200000000060001C040000000000FFFFFFFF44
:10103000FFFFFFFFFFFFFFFFFFFFFFFFFFFFFFFFC0
:10104000FFFFFFFFFFFFFFFFFFFFFFFFFFFFFFFFB0
:10105000FFFFFFFFFFFFFFFFFFFFFFFFFFFFFFFFA0
:10106000FFFFFFFFFFFFFFFFFFFFFFFFFFFFFFFF90
:10140000814205D051F8043B40F8043B8242F9D8B0
:10141000704700BF044A05494FF0000342F8043BFF
:101420009142FBD8704700BFC042012060D3012029
:101430002DE98848BFF34F8F00BF00BF00BF00BF3A
:1014400000F000FA684B0822C3F8542100BF00BF27
:1014500000BF00BF00BF00BF00BF00BF00BF00BF94
:1014600000BF00BF00BF00BF00BF00BF5F4A6049B0
:101470006048FFF7C5FF604A60496148FFF7C0FF59
:10148000604CFFF7C7FF4FF470004FF0E0210023DE
:101490005D4AC1F8880D44F823200133B02BFAD1FE
:1014A0005A4B80215A4A03F8011B9342FBD14FF05B
:1014B000E0254D4E4FF08039DFF884B1DFF884A18C
:1014C0004FF0FF31C5F8084D0027C6F80491C6F863
:1014D00000B1C6F8F490C6F8F0A0D5F8243DDFF8C6
:1014E000688143F4E0234B4AC5F8243DD8F81C300A
:1014F00023F07F0343F04003C8F81C30D8F82430B1
:1015000023F07F0343F04003C8F824309166D1668E
:101510001167516700F09EF93F4B4049A363404B70
:10152000E36363236B610323AF612B613D4BC5F81C
:10153000203DD5F8FC3D43F08073C5F8FC3D3A4BA7
:101540001A6842F001021A605B680B6000F0CCFB85
:10155000C6F804913548C6F800B1C6F8F490C6F84C
:10156000F0A000F049FDD8F86C10314B314A41F43D
:101570004051C8F86C101F60C3F80871C3F81871A7
:10158000C3F82871C3F83871936BDB0708D442F6AF
:101590001563294951651365936B43F00103936308
:1015A000244A264C936843F00113936000F0DAF963
:1015B00000F01EF900F018FD00F0C4FB00F044F943
:1015C0002368132BFCD900F055FC2368B3F5967FF4
:1015D000FBD300F03DF900F039F900F009FD00F00F
:1015E000FBFC30BFFDE700BF00800D4098AA020061
:1015F0000022006000000000C04201209CCC02607C
:10160000000000200040012021FF010000E400E074
:10161000A0E400E000C00A4041130200A4D201206F
:101620004513020000002020001000E00046C32304
:101630000040084000400D400000C056A8D20120E4
:101640001B1018200C0D111300C00F40054B4FF458
:101650002A01054A05485A641864054A9963954663
:10166000FFF7E6FE00C00A40FFAFAAAA070020006D
:101670000000052043690A4A03EB011010B4037A05
:10168000084C02EB0313D3E901321460C2681A60FC
:1016900003690BB142691A605DF8044B704700BFE3
:1016A0001C31002061F801004369027E03EB021245
:1016B00092F808C08C451CD01A7AFF2A19D09142A2
:1016C00010B5044616D01A7EFF2A06D00121D3E9B0
:1016D000002312681A4201D1217610BD064B052263
:1016E000204603EB0C135B681A60FFF7C3FF2176FB
:1016F000F3E770470021EAE71C31002043690A4AFA
:1017000003EB011010B490F82830084C02EB0313DF
:10171000D3E901321460C26A1A60036B0BB1426BE9
:101720001A605DF8044B70471C31002061F801001D
:101730004369427E03EB021292F828C08C451ED00A
:1017400093F82820FF2A1AD0914210B5044617D0EA
:1017500093F83820FF2A06D00121D3E9002312682C
:101760001A4201D1617610BD064B0522204603EBDB
:101770000C135B681A60FFF7C1FF6176F3E77047EF
:101780000021EAE71C310020164942698B6B23F4E3
:101790007C0343F4802370B58B630446124DD2E979
:1017A00000130A681A4303690A60022200211A61C1
:1017B0000E4A19619A6401225A629D624FF43035D3
:1017C000DD624FF001159E6C1E6519629D651A6100
:1017D000017EFFF74FFF617E2046BDE87040FFF7B6
:1017E0008DBF00BF00C00F40B80B05053B3728195F
:1017F000104BA020104AD96E41F4403110B4D96684
:1018000040F23764D96E41F44071D96654649064F3
:10181000936C1B06FCD4094A40F23761A023516443
:101820009364936C13F08003FBD1054A13705DF849
:10183000044B704700C00F4000400C4000800C403B
:1018400008D30120704700BF704700BF704700BF3A
:1018500000BF704710B44FF0E0230021102431483E
:10186000C3F8941DC3F89C4D1124C3F8A00D2E4855
:10187000C3F89C4D1224C3F8A00D2C48C3F89C4D0E
:101880002B4AC3F8A00D2B4C42F015022A48C3F88E
:101890009C4DC3F8A00D294C2948C3F89C4DC3F8B2
:1018A000A00D284CC3F89C2D2748284AC3F8A04D0A
:1018B000C3F89C0DC3F8A02D02F5A022244C0C32D5
:1018C0002448C3F89C4DC3F8A02D234AC3F89C0DAF
:1018D000224CC3F8A02D02F14062C3F89C4D204871
:1018E000C3F8A02D0C32C3F89C0DC3F8A02D00BF87
:1018F00000BF00BF00BF00BF0122C3F8942DBFF39B
:101900004F8FBFF36F8FC3F8501FBFF34F8FBFF3DD
:101910006F8FD3F8142D5DF8044B42F44032C3F8B6
:10192000142D70473F000010250008070900100023
:1019300060D30120130020002100020714000020C2
:1019400025000813090000101600202027000B13A3
:1019500017000040180000602F000B0719000070EE
:101960001A000080F0B5B84B1822B84E0120B84FCD
:1019700083B0C3F85C62B749C3F86072B64DC3F870
:101980006462A6F53046B54CC3F86862C3F86C5281
:10199000C3F87052C3F87452C3F8785248F20C7509
:1019A000DA661A675A679A67DA67C3F88020C3F85D
:1019B0008420C3F88820C1F82C03A94AC1F8300359
:1019C000C1F83403C1F83803C1F83C03C1F850032F
:1019D000A169A44B0A40A448A4491343A44AA361A3
:1019E000D4F8843043F00C03C4F884304FF0FF3453
:1019F000036843F00203036003682B404FF4005573
:101A00001A439C4B026044608A689B4C13409B4A7B
:101A100043F000538360C36823F07803C360036A14
:101A2000134023430362036A1340954A2343954CB2
:101A300043628262C2620022D1F8B83023F03F03D1
:101A400043F00103C0F8B830D1F8BC308E4923F020
:101A50003F0343F00103C0F8BC3040F2056302616C
:101A600005660467C0F88030456644670224C0F804
:101A70008430036823F0020303608161834B84494F
:101A8000C46143F8042B8B42FBD1774A136843F0BF
:101A900001031360136813F00103FBD17A4802219C
:101AA00040F2F564906140F29940D16140F26641A4
:101AB000C2F8004242F20144C2F810127549C2F85D
:101AC0002002C2F8301240F235417348C2F8344265
:101AD000C2F84012714CC2F8500242F20120704923
:101AE000C2F854120121C2F86042C2F864025E4892
:101AF000C2F8A030C2F8A430C2F8B0104369DA07C7
:101B0000FCD5012300244FF4803257494361C0F8CB
:101B1000A040C0F8A420C0F8B0304B69DB07FCD56A
:101B2000012300244FF400304F4A4B61C1F8A0401C
:101B3000C1F8A400C1F8B0305369DF07FCD5012318
:101B40000024584848495361C2F8A040C2F8A40094
:101B5000C2F8B0304B69DE07FCD5D1F8003145F64C
:101B60000D5221209BB24861934265D100244FF46D
:101B7000802201233C48C1F8A040C1F8A420C1F84C
:101B8000B0304369DD07FCD501234FF40004002188
:101B9000354A4361C0F8A040C0F8A410C0F8B03086
:101BA0005369DC07FCD501234FF400044FF4803067
:101BB0002D495361C2F8A040C2F8A400C2F8B03069
:101BC0004B69D807FCD501234FF400044FF40030D3
:101BD000254A4B61C1F8A040C1F8A400C1F8B0305B
:101BE0005369D907FCD501234FF400042D481E4941
:101BF0005361C2F8A040C2F8A400C2F8B0304B69EB
:101C0000DA07FCD5D1F8003145F60D5221209BB200
:101C10004861934250D008254FF400042249002027
:101C2000224B234A009015705A1A0123214822445E
:101C300000F0CEF903B0F0BD1E4B0022C3E9002234
:101C4000C3E9022203B0F0BD00801F40F9B00100DB
:101C5000F910010000841F40F970010000C00F401E
:101C6000FFFCFF1F000300A000402A4000802A4024
:101C70001200FFFFFF37F7004000008000FFF07CFC
:101C8000FF000F8363000200F05AF05A00422A401E
:101C900000432A409F041830EB06180A3806180A39
:101CA00006320126040003000000007000000070EE
:101CB00009D301206CCE01204FF400044FF48022A0
:101CC00001230848C1F8A040C1F8A420C1F8B030F1
:101CD0004369DB07FCD5012310254FF08074436175
:101CE0009CE700BF00402A40F0B4154A40274FF45B
:101CF00080314FF480564FF400554FF4404443F286
:101D00004200136913F0020F0ED113F4005F0FD0DD
:101D100013F4805F0ED0002BF3DA13F4803F0BD165
:101D20005B060BD5F0BC7047946151619061E8E7A8
:101D30005561E6E75661E4E79161E2E75761E0E764
:101D400000800D403F4A03203F49F3EE095AD2F884
:101D500080304FF0000C9FED3D6A23F001039FEDB2
:101D60003C5A30B4C2F88030C2F89000D1F8E0108C
:101D7000384DCBB2384C39482B6007EE903A0B0DFA
:101D8000C1F30B21F8EEE77A06EE903A07EE101A4F
:101D9000334BB8EEC77A2160F8EEE66A314937EE88
:101DA000C66A37EEC55A76EEC76A77EEE57A26EE52
:101DB000266AC3ED006A25EE265AD2F8803067EE17
:101DC000A64AC0ED007AC6EE275A274885EE276A54
:101DD000C4EEA76A75EE875AFCEEE55A36EE076A3E
:101DE00015EE904ABCEEC66A43EA045376EE877A53
:101DF000C2F8803016EE103AD2F89041FCEEE77A45
:101E000001EA0341214317EE903AC2F89011C3F35F
:101E10000B03D2F890110B431449C2F89031D2F859
:101E2000803043F00203C2F88030114B80F840C08C
:101E3000C1F840314FF0E023012230BCC3F8082143
:101E4000704700BF00810D4000441F400000AA42BF
:101E50000000B442C8D10120C4D10120CCD101205E
:101E6000D8D101200000FF0F00E400E00040012075
:101E700009010200314B40F6617210B5C3F8202110
:101E800040F2044400F0A0F82D4A2E49D2F88030E8
:101E90002D4843F00303C2F880302C4BC1F8604159
:101EA00002681A4203D1D1F8A8319A071BD0254AFB
:101EB0004FF00041244B5963D2F8403143F0020304
:101EC000C2F84031D2F840319B07FBD44FF40030C8
:101ED0004FF0E0211C4B4FF00042C1F88C0219205A
:101EE0009A6300F06DF8184A4FF08040154C0021BD
:101EF00090630A20164B11604FF42072C4F8A801B9
:101F0000184600F06DF84FF4800203464FF481004C
:101F100040F243111860C4F858311A640D4B0E4A50
:101F2000C4F84811C3F804224FF0E0224FF4003106
:101F30000123C2F80C11C4F8403110BD00800D40DF
:101F400000C00F4000002E4000900D40001C1E00FD
:101F50000000002000400120F102020008B50E4BF5
:101F60001B6E9B0700D4FBBE72B60C4B00200C4AC4
:101F7000C3F8400103F160430A49A3F55F231164EC
:101F80009D46BFF34F8F4FF400130748074ADB69A4
:101F900002609B68984700BF00441F4000002E402D
:101FA00000C00A400300200000802020000012EB47
:101FB000F8B500BFF8BC08BC9E46704700000000A2
:101FC0005FF800F039EE01005FF800F0610A0200EE
:101FD0005FF800F0D51302005FF800F03DF5010056
:101FE0005FF800F00D3C02005FF800F02DFE0100EC
:101FF0005FF800F0E54302005FF800F049EB0100F4
:082000006904000049A300007F
:1020080080C00F400000000319000000100000000D
:10201800E8841F4001000000FF000000FF000000EE
:102028000000000000000000180000001000000080
:10203800E4841F4001000000FF000000FF000000D2
:1020480000000000000000001F000000ADB9000003
:1020580070C00F40000C00001100000011000000CB
:10206800E0841F40020000002C0000001200000065
:10207800E0841F4001000000100000001100000073
:10208800DC841F40020000002D0000001200000048
:10209800DC841F40010000001E000000A1B9000000
:1020A80070C00F40C00000001200000013000000C4
:1020B800D0841F4001000000FF000000FF00000066
:1020C80000000000000000001300000013000000E2
:1020D800CC841F4001000000FF000000FF0000004A
:1020E80000000000000000001C00000095B900007E
:1020F800160355005300420020005300650072008B
:10210800690061006C000000180354006500650058
:102118006E00730079006400750069006E006F003E
:102128000403090409026200030100C032080B001D
:102138000202020100090400000102020100052454
:1021480000100105240101010424020605240600EB
:10215800010705820310001009040100020A0000AB
:10216800000705030240000007058402400000093B
:1021780004020002FF6AFF00070581024000010710
:10218800050102400001000009026200030100C0CD
:1021980032080B00020202010009040000010202D9
:1021A8000100052400100105240101010424020690
:1021B8000524060001070582031000050904010033
:1021C800020A000000070503020002000705840256
:1021D8000002000904020002FF6AC7000705810225
:1021E8000002010705010200020100000A060002C0
:0821F800EF02014001000000AC
:1022000000000000000000000000000000000000CE
:1022100000000000000000000000000000000000BE
:102220000A49D1E900231344824298BF984234BF3F
:102230000123002308D28B68801AB0FBF3F203FB62
:102240001200B0FA80F35B0918467047A43C0120E5
:102250000346024A00201A60704700BF143701206D
:102260000120704770B5054608460E46FFF7D8FFB7
:1022700038B34FF400121C4B2946D0691A68006924
:102280009B68B21A04690020A047184BB0FA80F48A
:1022900005461B686409022B01DC204670BD41F233
:1022A0009B621349134B032007F032FC124B134A75
:1022B00031461348002D08BF1A4607F06FFC204630
:1022C00070BD0A4B04461B68002BE6DD094B41F24A
:1022D00093620749012007F01BFC3146094807F0CB
:1022E0005DFC204670BD00BFA43C0120B03B012036
:1022F00064610020142A00203C590020405900202D
:10230000685900204859002001231A46013B002A41
:10231000FBD17047064908B5D1F8E0309A0705D4DB
:10232000FFF7F2FFD1F8E0309B07F9D508BD00BFF9
:1023300000802A402DE9F04F2DED028BADF5077D91
:10234000044600AF07F11803F9607A607B6172B64A
:1023500007F11400FFF77CFF002847D16F4E7A6821
:10236000F368B2FBF3F503FB1525002D4CD1336860
:10237000A34200F2A780FB687A689A189342BA6079
:1023800080F0BA801D461FE03368FA68A4EB0309A9
:1023900093424BD94FF4001341464A46D8692B4625
:1023A0000069D0F808800020C047F368B0FA80FACE
:1023B0001D444FEA5A1A1C44BB68AB4294BF002329
:1023C0000AF00103002B61D02046FFF729FFD7F860
:1023D00014800028D8D021464046FFF743FF8246AC
:1023E0000028D1D14E4B1B68022B7CDC4FF0000A39
:1023F0004C4B1B7803B962B6504607F50777BD46CC
:10240000BDEC028BBDE8F08F454B1B68002BEDDD6A
:10241000454B41F2B86245498246012007F078FBFE
:10242000F2687968424807F0B9FBE1E76B46F0686B
:1024300008EE103A20F00303800803F1070323F0AD
:102440000703ADEB030D6B4607EE903A0ED005EB9C
:102450008000A5F1040BA3F1040A0438FFF75AFF2A
:102460005BF8043F58454AF8043FF7D14FF4001099
:1024700017EE903A41464A46C0690069D0F8088094
:102480000020C04718EE103A9D468EE7244B804648
:102490001B68022BACDD244B41F2E262234903208E
:1024A00007F036FBB8F1000F224A234B12BF4FF062
:1024B000000A4FF0010A1346224679681F4807F0C8
:1024C0006DFB95E7164B1B68002B8FDD164B41F219
:1024D000BC620120154907F01BFB21461848AA469B
:1024E00007F05CFB84E7104B41F2E2620F490320E6
:1024F00007F00EFB104BDFE7094B1B68022B02DCD9
:102500004FF0010A74E7084B41F2E26207490320E9
:1025100007F0FEFA4FF0010A064BCDE7A43C01207C
:10252000B03B01201ED30120202A0020646100203E
:102530008C5900203C59002040590020C8590020E7
:10254000A8590020B2B12DE9F041074688461D4642
:102550001646002408EB040138192C442A46FFF7DC
:10256000E9FEA642F6D84FF0E023054AC3F80C2D49
:10257000BDE8F0814FF0E023014AC3F80C2D70470D
:102580000400FA05F8B54FF084439D695A69154077
:102590000DD0254F01269D6195FAA5F4B4FA84F477
:1025A00057F8243006FA04F49847A543F4D11F4B9A
:1025B0009D695A6915400DD01D4F01269D6195FA00
:1025C000A5F4B4FA84F457F8243006FA04F49847D2
:1025D000A543F4D1174B9D695A6915400DD0164F8C
:1025E00001269D6195FAA5F4B4FA84F457F82430D5
:1025F00006FA04F49847A543F4D1104B9D695A6933
:1026000015400DD00E4F01269D6195FAA5F4B4FA40
:1026100084F457F8243006FA04F49847A543F4D11B
:10262000BFF34F8FF8BD00BF2C390120004000429E
:10263000AC390120008000422C3A012000C0004249
:10264000AC3A01200548064B1B1AD90F01EBA30138
:10265000491002D0034B03B118477047C042012014
:10266000C04201200000000008B5054B1BB1054920
:102670000548AFF30080BDE80840FFF7E3BF00BFA7
:102680000000000010D10120001C0460704700BF52
:10269000704700BF704700BF00207047034B1868A9
:1026A00010B103681B681847704700BF18C90120A4
:1026B0002DE9F04100F5804090B0574C9646574BBD
:1026C0000094C0F860121B6A5548C3F301230468E4
:1026D000403304F080746B4413F8406C514B03FB9F
:1026E00006F60368B6FBF1F2B6FBF2F543F0A04341
:1026F0004D1B03600368DF01FCD5052A4FF0000C79
:102700002AD96046831C0130B2FBF3F7192F07FB6F
:1027100003F3F7D84FF00108B6FBF3F3CB1A002B05
:10272000B8BF5B42AB420BDBA7F10C0318BF4FF005
:102730000008062B0AD8B8F1000F07D08446E1E75D
:102740001D46A7F10C038446062BF4D9052FD9D8D2
:102750000CF10103B2FBF3F2B5F5967FA2F105028D
:102760004CDC142A4AD802EB42022F4F6E46DFF8A7
:10277000B08002F14003BEF1020F0DEB03050FCF55
:102780000FC60FCF0FC60FCF0FC697E80F0007C6B3
:1027900026F8023B4FEA1343337015F83F3C15F817
:1027A0003E2C4FEAC34315F8401C4FEA024203F4A3
:1027B000601301F0070102F4E02243EA020343EA56
:1027C000010343F4800343EA0C6343F48043C8F8F5
:1027D0000430D8F8043014BF23F0080343F0080392
:1027E000C8F804303CB90E4A136823F080531360D4
:1027F0001368DB01FCD410B0BDE8F081002CFAD1E5
:10280000074A136823F0805313601368D901FCD47E
:1028100010B0BDE8F08100BF3C18500000C00F4070
:1028200000801D4040420F004806002000207047F5
:1028300000207047082070470346104A102110B549
:1028400090B0DC78029407A89C7801945C7800949E
:1028500005AC1B7813F088F8002307A920460F93D6
:10286000CDE90B33CDE90D3315F00AFF0BAA94E83F
:10287000030017F043F80B9810B010BDF0210020B2
:1028800010490B68486B0A68496B02F07F02C1F37C
:10289000036101320431B2EB410F10D303F07F0327
:1028A000C0F30360053B0130A3EB4003DBB2054AF4
:1028B000106800F07F000130C01AC0B270470023DA
:1028C000F5E700BF00801D4030B585B086460DF1AC
:1028D000040C8CE80E0090F86E5090F86F402B19A5
:1028E0000A2B01D90B3B9BB2DAB263460B2C02EBED
:1028F000820203CB0EEB420C1B884EF81200CCF880
:102900000410ACF8083004D001348EF86F4005B0E4
:1029100030BD0135EDB20B2D03D08EF86E5005B0F1
:1029200030BD00238EF86E3005B030BD90F86F30AA
:1029300093B1934210D390F86E301A440A2A88BF9C
:102940000B3A02EB820200EB420350F812005A6885
:1029500008604A601B890B81704700BF69B170B580
:10296000054608460C4624F08BF82B6802462146A3
:1029700028465B68BDE8704018477047F8B50646C2
:1029800000F1160500F12207EC1E14F8011F0123C7
:10299000002230460BF0B0FAAC42F6D1E51CBD4245
:1029A000F2D13046F8BD00BF2DE9F84F01241821BF
:1029B0001F48DFF88880A3461E4EDFF884A01E4F14
:1029C000DFF8809020F0B0FC01E018F801BF336818
:1029D0005A46514638461D1995F838502B445B7CB1
:1029E0001DF0B8FE31680C2238460B1993F83830C8
:1029F00002FB031154311DF05FFE35685946002279
:102A000005EB040C95F83330013448469CF838C087
:102A100065446D7CEB1AB3FA83F35B090BF06CFA37
:102A2000072CD2D10448BDE8F84F1DF077BE00BF97
:102A3000581F002020CF012010290120E82100206C
:102A4000741F002028D101202DE9F041144C94F886
:102A50009850C5F19605002D01DCBDE8F08194F891
:102A60009560002794F8961026440E48013196F898
:102A700001802144777023F051FF042D86F80180F6
:102A8000EBDD94F8915094F89210254406480131FA
:102A90006E7821446F7023F041FF6E70BDE8F081C5
:102AA00028D001208CC6012098C6012008B5074B0C
:102AB0001B7803B908BD5821054820F035FC054BAB
:102AC00005481978BDE808401DF01CBE20D3012040
:102AD0002019002028D001201029012038B50446F3
:102AE00049B108460D4623F0CBFF2368024629462C
:102AF0005B68204698472046BDE838401DF00EBE72
:102B00002DE9F84305460F4626480421144620F0D7
:102B10000BFC00231022E97823481DF029FE012137
:102B2000224820F001FCE97800230A221E481DF00B
:102B30001FFE02211E4820F0F7FB34B1204623F08F
:102B40009FFF0146204620F0EFFB204623F098FF30
:102B5000C4B2132C08D8174E013401213046E4B218
:102B600020F0E2FB142CF7D17E1E3A4612490E48A3
:102B70001DF0F0FD042E12DD0424DFF84090DFF894
:102B800028800C4F2A5D013449464046E4B21DF0CE
:102B9000E1FD0121384620F0C7FBB442F2DBBDE87D
:102BA000F88300BF882400201029012090240020F1
:102BB00094240020B44D002098240020A424002058
:102BC000244B5A68D2E90010D3680968006810B431
:102BD0001842946801EA040134D0137C03F0030323
:102BE00009BB43F008039908013B11740D2B0ED863
:102BF000DFE803F0100722070D1C10101C0D072240
:102C000007105169137E01390133516113765DF864
:102C1000044B7047137E51690133013113765DF81F
:102C2000044B5161704743F00403DAE753695DF8E0
:102C3000044BC83B5361704753695DF8044BC8337C
:102C400053617047137C03F003030029CBD043F09A
:102C50000403C8E74CC90120244B9A68D2E900104C
:102C6000D3680968006810B41842946801EA040146
:102C700034D0137C03F0030309BB43F00803990825
:102C8000013B11740D2B0ED8DFE803F0100722076B
:102C90000D1C10101C0D072207105169137E0139FD
:102CA0000133516113765DF8044B7047137E51690F
:102CB0000133013113765DF8044B5161704743F0E5
:102CC0000403DAE753695DF8044BC83B536170476E
:102CD00053695DF8044BC83353617047137C03F0AC
:102CE00003030029CBD043F00403C8E74CC90120FB
:102CF000244B9A69D2E90010D3680968006810B4BF
:102D00001842946801EA040134D0137C03F00303F1
:102D100009BB43F008039908013B11740D2B0ED831
:102D2000DFE803F0100722070D1C10101C0D07220E
:102D300007105169137E01390133516113765DF833
:102D4000044B7047137E51690133013113765DF8EE
:102D5000044B5161704743F00403DAE753695DF8AF
:102D6000044BC83B5361704753695DF8044BC8334B
:102D700053617047137C03F003030029CBD043F069
:102D80000403C8E74CC90120244BDA68D2E90010DB
:102D9000D3680968006810B41842946801EA040115
:102DA00034D0137C03F0030309BB43F008039908F4
:102DB000013B11740D2B0ED8DFE803F0100722073A
:102DC0000D1C10101C0D072207105169137E0139CC
:102DD0000133516113765DF8044B7047137E5169DE
:102DE0000133013113765DF8044B5161704743F0B4
:102DF0000403DAE753695DF8044BC83B536170473D
:102E000053695DF8044BC83353617047137C03F07A
:102E100003030029CBD043F00403C8E74CC90120C9
:102E2000244B5A69D2E90010D3680968006810B4CD
:102E30001842946801EA040134D0137C03F00303C0
:102E400009BB43F008039908013B11740D2B0ED800
:102E5000DFE803F0100722070D1C10101C0D0722DD
:102E600007105169137E01390133516113765DF802
:102E7000044B7047137E51690133013113765DF8BD
:102E8000044B5161704743F00403DAE753695DF87E
:102E9000044BC83B5361704753695DF8044BC8331A
:102EA00053617047137C03F003030029CBD043F038
:102EB0000403C8E74CC90120244B1A69D2E9001069
:102EC000D3680968006810B41842946801EA0401E4
:102ED00034D0137C03F0030309BB43F008039908C3
:102EE000013B11740D2B0ED8DFE803F01007220709
:102EF0000D1C10101C0D072207105169137E01399B
:102F00000133516113765DF8044B7047137E5169AC
:102F10000133013113765DF8044B5161704743F082
:102F20000403DAE753695DF8044BC83B536170470B
:102F300053695DF8044BC83353617047137C03F049
:102F400003030029CBD043F00403C8E74CC9012098
:102F5000244BDA69D2E90010D3680968006810B41C
:102F60001842946801EA040134D0137C03F003038F
:102F700009BB43F008039908013B11740D2B0ED8CF
:102F8000DFE803F0100722070D1C10101C0D0722AC
:102F900007105169137E01390133516113765DF8D1
:102FA000044B7047137E51690133013113765DF88C
:102FB000044B5161704743F00403DAE753695DF84D
:102FC000044BC83B5361704753695DF8044BC833E9
:102FD00053617047137C03F003030029CBD043F007
:102FE0000403C8E74CC90120244B9A6DD2E90010B4
:102FF000D3680968006810B41842946801EA0401B3
:1030000034D0137C03F0030309BB43F00803990891
:10301000013B11740D2B0ED8DFE803F010072207D7
:103020000D1C10101C0D072207105169137E013969
:103030000133516113765DF8044B7047137E51697B
:103040000133013113765DF8044B5161704743F051
:103050000403DAE753695DF8044BC83B53617047DA
:1030600053695DF8044BC83353617047137C03F018
:1030700003030029CBD043F00403C8E74CC9012067
:10308000244B1A6DD2E90010D3680968006810B4A7
:103090001842946801EA040134D0137C03F003035E
:1030A00009BB43F008039908013B11740D2B0ED89E
:1030B000DFE803F0100722070D1C10101C0D07227B
:1030C00007105169137E01390133516113765DF8A0
:1030D000044B7047137E51690133013113765DF85B
:1030E000044B5161704743F00403DAE753695DF81C
:1030F000044BC83B5361704753695DF8044BC833B8
:1031000053617047137C03F003030029CBD043F0D5
:103110000403C8E74CC90120244B5A6DD2E90010C2
:10312000D3680968006810B41842946801EA040181
:1031300034D0137C03F0030309BB43F00803990860
:10314000013B11740D2B0ED8DFE803F010072207A6
:103150000D1C10101C0D072207105169137E013938
:103160000133516113765DF8044B7047137E51694A
:103170000133013113765DF8044B5161704743F020
:103180000403DAE753695DF8044BC83B53617047A9
:1031900053695DF8044BC83353617047137C03F0E7
:1031A00003030029CBD043F00403C8E74CC9012036
:1031B000244B1A6CD2E90010D3680968006810B477
:1031C0001842946801EA040134D0137C03F003032D
:1031D00009BB43F008039908013B11740D2B0ED86D
:1031E000DFE803F0100722070D1C10101C0D07224A
:1031F00007105169137E01390133516113765DF86F
:10320000044B7047137E51690133013113765DF829
:10321000044B5161704743F00403DAE753695DF8EA
:10322000044BC83B5361704753695DF8044BC83386
:1032300053617047137C03F003030029CBD043F0A4
:103240000403C8E74CC90120244B5A6CD2E9001092
:10325000D3680968006810B41842946801EA040150
:1032600034D0137C03F0030309BB43F0080399082F
:10327000013B11740D2B0ED8DFE803F01007220775
:103280000D1C10101C0D072207105169137E013907
:103290000133516113765DF8044B7047137E516919
:1032A0000133013113765DF8044B5161704743F0EF
:1032B0000403DAE753695DF8044BC83B5361704778
:1032C00053695DF8044BC83353617047137C03F0B6
:1032D00003030029CBD043F00403C8E74CC9012005
:1032E000244B9A6CD2E90010D3680968006810B4C6
:1032F0001842946801EA040134D0137C03F00303FC
:1033000009BB43F008039908013B11740D2B0ED83B
:10331000DFE803F0100722070D1C10101C0D072218
:1033200007105169137E01390133516113765DF83D
:10333000044B7047137E51690133013113765DF8F8
:10334000044B5161704743F00403DAE753695DF8B9
:10335000044BC83B5361704753695DF8044BC83355
:1033600053617047137C03F003030029CBD043F073
:103370000403C8E74CC90120244BDA6CD2E90010E1
:10338000D3680968006810B41842946801EA04011F
:1033900034D0137C03F0030309BB43F008039908FE
:1033A000013B11740D2B0ED8DFE803F01007220744
:1033B0000D1C10101C0D072207105169137E0139D6
:1033C0000133516113765DF8044B7047137E5169E8
:1033D0000133013113765DF8044B5161704743F0BE
:1033E0000403DAE753695DF8044BC83B5361704747
:1033F00053695DF8044BC83353617047137C03F085
:1034000003030029CBD043F00403C8E74CC90120D3
:10341000244B1A6AD2E90010D3680968006810B416
:103420001842946801EA040134D0137C03F00303CA
:1034300009BB43F008039908013B11740D2B0ED80A
:10344000DFE803F0100722070D1C10101C0D0722E7
:1034500007105169137E01390133516113765DF80C
:10346000044B7047137E51690133013113765DF8C7
:10347000044B5161704743F00403DAE753695DF888
:10348000044BC83B5361704753695DF8044BC83324
:1034900053617047137C03F003030029CBD043F042
:1034A0000403C8E74CC90120244B5A6AD2E9001032
:1034B000D3680968006810B41842946801EA0401EE
:1034C00034D0137C03F0030309BB43F008039908CD
:1034D000013B11740D2B0ED8DFE803F01007220713
:1034E0000D1C10101C0D072207105169137E0139A5
:1034F0000133516113765DF8044B7047137E5169B7
:103500000133013113765DF8044B5161704743F08C
:103510000403DAE753695DF8044BC83B5361704715
:1035200053695DF8044BC83353617047137C03F053
:1035300003030029CBD043F00403C8E74CC90120A2
:10354000244B9A6AD2E90010D3680968006810B465
:103550001842946801EA040134D0137C03F0030399
:1035600009BB43F008039908013B11740D2B0ED8D9
:10357000DFE803F0100722070D1C10101C0D0722B6
:1035800007105169137E01390133516113765DF8DB
:10359000044B7047137E51690133013113765DF896
:1035A000044B5161704743F00403DAE753695DF857
:1035B000044BC83B5361704753695DF8044BC833F3
:1035C00053617047137C03F003030029CBD043F011
:1035D0000403C8E74CC90120244BDA6AD2E9001081
:1035E000D3680968006810B41842946801EA0401BD
:1035F00034D0137C03F0030309BB43F0080399089C
:10360000013B11740D2B0ED8DFE803F010072207E1
:103610000D1C10101C0D072207105169137E013973
:103620000133516113765DF8044B7047137E516985
:103630000133013113765DF8044B5161704743F05B
:103640000403DAE753695DF8044BC83B53617047E4
:1036500053695DF8044BC83353617047137C03F022
:1036600003030029CBD043F00403C8E74CC9012071
:10367000244B1A6BD2E90010D3680968006810B4B3
:103680001842946801EA040134D0137C03F0030368
:1036900009BB43F008039908013B11740D2B0ED8A8
:1036A000DFE803F0100722070D1C10101C0D072285
:1036B00007105169137E01390133516113765DF8AA
:1036C000044B7047137E51690133013113765DF865
:1036D000044B5161704743F00403DAE753695DF826
:1036E000044BC83B5361704753695DF8044BC833C2
:1036F00053617047137C03F003030029CBD043F0E0
:103700000403C8E74CC90120244B5A6BD2E90010CE
:10371000D3680968006810B41842946801EA04018B
:1037200034D0137C03F0030309BB43F0080399086A
:10373000013B11740D2B0ED8DFE803F010072207B0
:103740000D1C10101C0D072207105169137E013942
:103750000133516113765DF8044B7047137E516954
:103760000133013113765DF8044B5161704743F02A
:103770000403DAE753695DF8044BC83B53617047B3
:1037800053695DF8044BC83353617047137C03F0F1
:1037900003030029CBD043F00403C8E74CC9012040
:1037A000244B9A6BD2E90010D3680968006810B402
:1037B0001842946801EA040134D0137C03F0030337
:1037C00009BB43F008039908013B11740D2B0ED877
:1037D000DFE803F0100722070D1C10101C0D072254
:1037E00007105169137E01390133516113765DF879
:1037F000044B7047137E51690133013113765DF834
:10380000044B5161704743F00403DAE753695DF8F4
:10381000044BC83B5361704753695DF8044BC83390
:1038200053617047137C03F003030029CBD043F0AE
:103830000403C8E74CC90120244BDA6BD2E900101D
:10384000D3680968006810B41842946801EA04015A
:1038500034D0137C03F0030309BB43F00803990839
:10386000013B11740D2B0ED8DFE803F0100722077F
:103870000D1C10101C0D072207105169137E013911
:103880000133516113765DF8044B7047137E516923
:103890000133013113765DF8044B5161704743F0F9
:1038A0000403DAE753695DF8044BC83B5361704782
:1038B00053695DF8044BC83353617047137C03F0C0
:1038C00003030029CBD043F00403C8E74CC901200F
:1038D000244B1A68D2E90010D3680968006810B454
:1038E0001842946801EA040134D0137C03F0030306
:1038F00009BB43F008039908013B11740D2B0ED846
:10390000DFE803F0100722070D1C10101C0D072222
:1039100007105169137E01390133516113765DF847
:10392000044B7047137E51690133013113765DF802
:10393000044B5161704743F00403DAE753695DF8C3
:10394000044BC83B5361704753695DF8044BC8335F
:1039500053617047137C03F003030029CBD043F07D
:103960000403C8E74CC90120254BD3F89820D2E9BD
:103970000010D3680968006810B41842946801EA1E
:10398000040134D0137C03F0030309BB43F00803A4
:103990009908013B11740D2B0ED8DFE803F01007D6
:1039A00022070D1C10101C0D072207105169137EF1
:1039B00001390133516113765DF8044B7047137E72
:1039C00051690133013113765DF8044B5161704741
:1039D00043F00403DAE753695DF8044BC83B5361D5
:1039E000704753695DF8044BC83353617047137CCB
:1039F00003F003030029CBD043F00403C8E700BF62
:103A00004CC90120254BD3F89020D2E90010D3688F
:103A10000968006810B41842946801EA040134D0BF
:103A2000137C03F0030309BB43F008039908013B2F
:103A300011740D2B0ED8DFE803F0100722070D1CC0
:103A400010101C0D072207105169137E0139013334
:103A5000516113765DF8044B7047137E5169013351
:103A6000013113765DF8044B5161704743F0040354
:103A7000DAE753695DF8044BC83B536170475369FB
:103A80005DF8044BC83353617047137C03F00303A4
:103A90000029CBD043F00403C8E700BF4CC9012084
:103AA000254BD3F89420D2E90010D3680968006848
:103AB00010B41842946801EA040134D0137C03F076
:103AC000030309BB43F008039908013B11740D2B54
:103AD0000ED8DFE803F0100722070D1C10101C0D94
:103AE000072207105169137E0139013351611376A2
:103AF0005DF8044B7047137E516901330131137631
:103B00005DF8044B5161704743F00403DAE75369F1
:103B10005DF8044BC83B5361704753695DF8044B33
:103B2000C83353617047137C03F003030029CBD0E3
:103B300043F00403C8E700BF4CC90120254BD3F86C
:103B40008020D2E90010D3680968006810B41842D8
:103B5000946801EA040134D0137C03F0030309BB29
:103B600043F008039908013B11740D2B0ED8DFE8D0
:103B700003F0100722070D1C10101C0D0722071060
:103B80005169137E01390133516113765DF8044B9D
:103B90007047137E51690133013113765DF8044B90
:103BA0005161704743F00403DAE753695DF8044B51
:103BB000C83B5361704753695DF8044BC833536188
:103BC0007047137C03F003030029CBD043F00403B8
:103BD000C8E700BF4CC90120254BD3F88420D2E9A7
:103BE0000010D3680968006810B41842946801EAAC
:103BF000040134D0137C03F0030309BB43F0080332
:103C00009908013B11740D2B0ED8DFE803F0100763
:103C100022070D1C10101C0D072207105169137E7E
:103C200001390133516113765DF8044B7047137EFF
:103C300051690133013113765DF8044B51617047CE
:103C400043F00403DAE753695DF8044BC83B536162
:103C5000704753695DF8044BC83353617047137C58
:103C600003F003030029CBD043F00403C8E700BFEF
:103C70004CC90120254BD3F88820D2E90010D36825
:103C80000968006810B41842946801EA040134D04D
:103C9000137C03F0030309BB43F008039908013BBD
:103CA00011740D2B0ED8DFE803F0100722070D1C4E
:103CB00010101C0D072207105169137E01390133C2
:103CC000516113765DF8044B7047137E51690133DF
:103CD000013113765DF8044B5161704743F00403E2
:103CE000DAE753695DF8044BC83B53617047536989
:103CF0005DF8044BC83353617047137C03F0030332
:103D00000029CBD043F00403C8E700BF4CC9012011
:103D1000254BD3F88C20D2E90010D36809680068DD
:103D200010B41842946801EA040134D0137C03F003
:103D3000030309BB43F008039908013B11740D2BE1
:103D40000ED8DFE803F0100722070D1C10101C0D21
:103D5000072207105169137E01390133516113762F
:103D60005DF8044B7047137E5169013301311376BE
:103D70005DF8044B5161704743F00403DAE753697F
:103D80005DF8044BC83B5361704753695DF8044BC1
:103D9000C83353617047137C03F003030029CBD071
:103DA00043F00403C8E700BF4CC90120244B1A6E3E
:103DB000D2E90010D3680968006810B4184294680A
:103DC00001EA040134D0137C03F0030309BB43F080
:103DD00008039908013B11740D2B0ED8DFE803F09E
:103DE000100722070D1C10101C0D07220710516927
:103DF000137E01390133516113765DF8044B70472E
:103E0000137E51690133013113765DF8044B516122
:103E1000704743F00403DAE753695DF8044BC83B8D
:103E20005361704753695DF8044BC8335361704761
:103E3000137C03F003030029CBD043F00403C8E74D
:103E40004CC90120244B5A6ED2E90010D36809688E
:103E5000006810B41842946801EA040134D0137C5D
:103E600003F0030309BB43F008039908013B1174F5
:103E70000D2B0ED8DFE803F0100722070D1C1010E1
:103E80001C0D072207105169137E0139013351615E
:103E900013765DF8044B7047137E5169013301318D
:103EA00013765DF8044B5161704743F00403DAE781
:103EB00053695DF8044BC83B5361704753695DF823
:103EC000044BC83353617047137C03F0030300298C
:103ED000CBD043F00403C8E74CC90120244B9A6EB1
:103EE000D2E90010D3680968006810B418429468D9
:103EF00001EA040134D0137C03F0030309BB43F04F
:103F000008039908013B11740D2B0ED8DFE803F06C
:103F1000100722070D1C10101C0D072207105169F5
:103F2000137E01390133516113765DF8044B7047FC
:103F3000137E51690133013113765DF8044B5161F1
:103F4000704743F00403DAE753695DF8044BC83B5C
:103F50005361704753695DF8044BC8335361704730
:103F6000137C03F003030029CBD043F00403C8E71C
:103F70004CC90120244BDA6ED2E90010D3680968DD
:103F8000006810B41842946801EA040134D0137C2C
:103F900003F0030309BB43F008039908013B1174C4
:103FA0000D2B0ED8DFE803F0100722070D1C1010B0
:103FB0001C0D072207105169137E0139013351612D
:103FC00013765DF8044B7047137E5169013301315C
:103FD00013765DF8044B5161704743F00403DAE750
:103FE00053695DF8044BC83B5361704753695DF8F2
:103FF000044BC83353617047137C03F0030300295B
:10400000CBD043F00403C8E74CC90120244B1A6FFE
:10401000D2E90010D3680968006810B418429468A7
:1040200001EA040134D0137C03F0030309BB43F01D
:1040300008039908013B11740D2B0ED8DFE803F03B
:10404000100722070D1C10101C0D072207105169C4
:10405000137E01390133516113765DF8044B7047CB
:10406000137E51690133013113765DF8044B5161C0
:10407000704743F00403DAE753695DF8044BC83B2B
:104080005361704753695DF8044BC83353617047FF
:10409000137C03F003030029CBD043F00403C8E7EB
:1040A0004CC90120244B5A6FD2E90010D36809682B
:1040B000006810B41842946801EA040134D0137CFB
:1040C00003F0030309BB43F008039908013B117493
:1040D0000D2B0ED8DFE803F0100722070D1C10107F
:1040E0001C0D072207105169137E013901335161FC
:1040F00013765DF8044B7047137E5169013301312B
:1041000013765DF8044B5161704743F00403DAE71E
:1041100053695DF8044BC83B5361704753695DF8C0
:10412000044BC83353617047137C03F00303002929
:10413000CBD043F00403C8E74CC90120244B9A6F4D
:10414000D2E90010D3680968006810B41842946876
:1041500001EA040134D0137C03F0030309BB43F0EC
:1041600008039908013B11740D2B0ED8DFE803F00A
:10417000100722070D1C10101C0D07220710516993
:10418000137E01390133516113765DF8044B70479A
:10419000137E51690133013113765DF8044B51618F
:1041A000704743F00403DAE753695DF8044BC83BFA
:1041B0005361704753695DF8044BC83353617047CE
:1041C000137C03F003030029CBD043F00403C8E7BA
:1041D0004CC90120244BDA6FD2E90010D36809687A
:1041E000006810B41842946801EA040134D0137CCA
:1041F00003F0030309BB43F008039908013B117462
:104200000D2B0ED8DFE803F0100722070D1C10104D
:104210001C0D072207105169137E013901335161CA
:1042200013765DF8044B7047137E516901330131F9
:1042300013765DF8044B5161704743F00403DAE7ED
:1042400053695DF8044BC83B5361704753695DF88F
:10425000044BC83353617047137C03F003030029F8
:10426000CBD043F00403C8E74CC90120244BDA6DDE
:10427000D2E90010D3680968006810B41842946845
:1042800001EA040134D0137C03F0030309BB43F0BB
:1042900008039908013B11740D2B0ED8DFE803F0D9
:1042A000100722070D1C10101C0D07220710516962
:1042B000137E01390133516113765DF8044B704769
:1042C000137E51690133013113765DF8044B51615E
:1042D000704743F00403DAE753695DF8044BC83BC9
:1042E0005361704753695DF8044BC833536170479D
:1042F000137C03F003030029CBD043F00403C8E789
:104300004CC90120254BD3F8D820D2E90010D3683E
:104310000968006810B41842946801EA040134D0B6
:10432000137C03F0030309BB43F008039908013B26
:1043300011740D2B0ED8DFE803F0100722070D1CB7
:1043400010101C0D072207105169137E013901332B
:10435000516113765DF8044B7047137E5169013348
:10436000013113765DF8044B5161704743F004034B
:10437000DAE753695DF8044BC83B536170475369F2
:104380005DF8044BC83353617047137C03F003039B
:104390000029CBD043F00403C8E700BF4CC901207B
:1043A000254BD3F8D020D2E90010D3680968006803
:1043B00010B41842946801EA040134D0137C03F06D
:1043C000030309BB43F008039908013B11740D2B4B
:1043D0000ED8DFE803F0100722070D1C10101C0D8B
:1043E000072207105169137E013901335161137699
:1043F0005DF8044B7047137E516901330131137628
:104400005DF8044B5161704743F00403DAE75369E8
:104410005DF8044BC83B5361704753695DF8044B2A
:10442000C83353617047137C03F003030029CBD0DA
:1044300043F00403C8E700BF4CC90120254BD3F863
:10444000D420D2E90010D3680968006810B418427B
:10445000946801EA040134D0137C03F0030309BB20
:1044600043F008039908013B11740D2B0ED8DFE8C7
:1044700003F0100722070D1C10101C0D0722071057
:104480005169137E01390133516113765DF8044B94
:104490007047137E51690133013113765DF8044B87
:1044A0005161704743F00403DAE753695DF8044B48
:1044B000C83B5361704753695DF8044BC83353617F
:1044C0007047137C03F003030029CBD043F00403AF
:1044D000C8E700BF4CC90120254BD3F8C020D2E962
:1044E0000010D3680968006810B41842946801EAA3
:1044F000040134D0137C03F0030309BB43F0080329
:104500009908013B11740D2B0ED8DFE803F010075A
:1045100022070D1C10101C0D072207105169137E75
:1045200001390133516113765DF8044B7047137EF6
:1045300051690133013113765DF8044B51617047C5
:1045400043F00403DAE753695DF8044BC83B536159
:10455000704753695DF8044BC83353617047137C4F
:1045600003F003030029CBD043F00403C8E700BFE6
:104570004CC90120254BD3F8C420D2E90010D368E0
:104580000968006810B41842946801EA040134D044
:10459000137C03F0030309BB43F008039908013BB4
:1045A00011740D2B0ED8DFE803F0100722070D1C45
:1045B00010101C0D072207105169137E01390133B9
:1045C000516113765DF8044B7047137E51690133D6
:1045D000013113765DF8044B5161704743F00403D9
:1045E000DAE753695DF8044BC83B53617047536980
:1045F0005DF8044BC83353617047137C03F0030329
:104600000029CBD043F00403C8E700BF4CC9012008
:10461000254BD3F8C820D2E90010D3680968006898
:1046200010B41842946801EA040134D0137C03F0FA
:10463000030309BB43F008039908013B11740D2BD8
:104640000ED8DFE803F0100722070D1C10101C0D18
:10465000072207105169137E013901335161137626
:104660005DF8044B7047137E5169013301311376B5
:104670005DF8044B5161704743F00403DAE7536976
:104680005DF8044BC83B5361704753695DF8044BB8
:10469000C83353617047137C03F003030029CBD068
:1046A00043F00403C8E700BF4CC90120254BD3F8F1
:1046B000CC20D2E90010D3680968006810B4184211
:1046C000946801EA040134D0137C03F0030309BBAE
:1046D00043F008039908013B11740D2B0ED8DFE855
:1046E00003F0100722070D1C10101C0D07220710E5
:1046F0005169137E01390133516113765DF8044B22
:104700007047137E51690133013113765DF8044B14
:104710005161704743F00403DAE753695DF8044BD5
:10472000C83B5361704753695DF8044BC83353610C
:104730007047137C03F003030029CBD043F004033C
:10474000C8E700BF4CC90120254BD3F8A020D2E90F
:104750000010D3680968006810B41842946801EA30
:10476000040134D0137C03F0030309BB43F00803B6
:104770009908013B11740D2B0ED8DFE803F01007E8
:1047800022070D1C10101C0D072207105169137E03
:1047900001390133516113765DF8044B7047137E84
:1047A00051690133013113765DF8044B5161704753
:1047B00043F00403DAE753695DF8044BC83B5361E7
:1047C000704753695DF8044BC83353617047137CDD
:1047D00003F003030029CBD043F00403C8E700BF74
:1047E0004CC90120254BD3F8A420D2E90010D3688E
:1047F0000968006810B41842946801EA040134D0D2
:10480000137C03F0030309BB43F008039908013B41
:1048100011740D2B0ED8DFE803F0100722070D1CD2
:1048200010101C0D072207105169137E0139013346
:10483000516113765DF8044B7047137E5169013363
:10484000013113765DF8044B5161704743F0040366
:10485000DAE753695DF8044BC83B5361704753690D
:104860005DF8044BC83353617047137C03F00303B6
:104870000029CBD043F00403C8E700BF4CC9012096
:10488000254BD3F8A820D2E90010D3680968006846
:1048900010B41842946801EA040134D0137C03F088
:1048A000030309BB43F008039908013B11740D2B66
:1048B0000ED8DFE803F0100722070D1C10101C0DA6
:1048C000072207105169137E0139013351611376B4
:1048D0005DF8044B7047137E516901330131137643
:1048E0005DF8044B5161704743F00403DAE7536904
:1048F0005DF8044BC83B5361704753695DF8044B46
:10490000C83353617047137C03F003030029CBD0F5
:1049100043F00403C8E700BF4CC90120254BD3F87E
:10492000AC20D2E90010D3680968006810B41842BE
:10493000946801EA040134D0137C03F0030309BB3B
:1049400043F008039908013B11740D2B0ED8DFE8E2
:1049500003F0100722070D1C10101C0D0722071072
:104960005169137E01390133516113765DF8044BAF
:104970007047137E51690133013113765DF8044BA2
:104980005161704743F00403DAE753695DF8044B63
:10499000C83B5361704753695DF8044BC83353619A
:1049A0007047137C03F003030029CBD043F00403CA
:1049B000C8E700BF4CC90120254BD3F8B020D2E98D
:1049C0000010D3680968006810B41842946801EABE
:1049D000040134D0137C03F0030309BB43F0080344
:1049E0009908013B11740D2B0ED8DFE803F0100776
:1049F00022070D1C10101C0D072207105169137E91
:104A000001390133516113765DF8044B7047137E11
:104A100051690133013113765DF8044B51617047E0
:104A200043F00403DAE753695DF8044BC83B536174
:104A3000704753695DF8044BC83353617047137C6A
:104A400003F003030029CBD043F00403C8E700BF01
:104A50004CC90120254BD3F8B420D2E90010D3680B
:104A60000968006810B41842946801EA040134D05F
:104A7000137C03F0030309BB43F008039908013BCF
:104A800011740D2B0ED8DFE803F0100722070D1C60
:104A900010101C0D072207105169137E01390133D4
:104AA000516113765DF8044B7047137E51690133F1
:104AB000013113765DF8044B5161704743F00403F4
:104AC000DAE753695DF8044BC83B5361704753699B
:104AD0005DF8044BC83353617047137C03F0030344
:104AE0000029CBD043F00403C8E700BF4CC9012024
:104AF000254BD3F8B820D2E90010D36809680068C4
:104B000010B41842946801EA040134D0137C03F015
:104B1000030309BB43F008039908013B11740D2BF3
:104B20000ED8DFE803F0100722070D1C10101C0D33
:104B3000072207105169137E013901335161137641
:104B40005DF8044B7047137E5169013301311376D0
:104B50005DF8044B5161704743F00403DAE7536991
:104B60005DF8044BC83B5361704753695DF8044BD3
:104B7000C83353617047137C03F003030029CBD083
:104B800043F00403C8E700BF4CC90120254BD3F80C
:104B9000BC20D2E90010D3680968006810B418423C
:104BA000946801EA040134D0137C03F0030309BBC9
:104BB00043F008039908013B11740D2B0ED8DFE870
:104BC00003F0100722070D1C10101C0D0722071000
:104BD0005169137E01390133516113765DF8044B3D
:104BE0007047137E51690133013113765DF8044B30
:104BF0005161704743F00403DAE753695DF8044BF1
:104C0000C83B5361704753695DF8044BC833536127
:104C10007047137C03F003030029CBD043F0040357
:104C2000C8E700BF4CC90120254BD3F89C20D2E92E
:104C30000010D3680968006810B41842946801EA4B
:104C4000040134D0137C03F0030309BB43F00803D1
:104C50009908013B11740D2B0ED8DFE803F0100703
:104C600022070D1C10101C0D072207105169137E1E
:104C700001390133516113765DF8044B7047137E9F
:104C800051690133013113765DF8044B516170476E
:104C900043F00403DAE753695DF8044BC83B536102
:104CA000704753695DF8044BC83353617047137CF8
:104CB00003F003030029CBD043F00403C8E700BF8F
:104CC0004CC901200000000043782DE9F041044662
:104CD0002DED028B82B0002B00F0A1800378002B19
:104CE00000F0848003690F4682690221DFF8D481D5
:104CF00093424269D8F80050C8BF8361C368D8F8AE
:104D000000609342B8BF4361D0E90123134483603C
:104D1000C369ED1A036A6048F61A1EF005FB37B145
:104D2000384621F0ADFE014638461EF0FDFAA36973
:104D300022695A495A481BF00DFD6369E2685949D6
:104D400057481BF007FD07EE905A5749B8EE675ACF
:104D5000D4ED027A5248B8EEE76AD4ED017AB7EEA4
:104D6000C55A524FB8EEE77A07EE906AB7EEC66AB8
:104D7000B8EE678AB7EEC77A9FED414BB7EEC88AA7
:104D800085EE043B88EE042B87EE037B86EE025B08
:104D900053EC172B8DED005B1BF0DCFC032144482A
:104DA0001EF0C2FAA7FB05310A22002389093C48FC
:104DB0001BF0DEFC03213F481EF0B6FA3E4B9E423C
:104DC0004FD84EF660239E423ED8A7FB06710023C3
:104DD0000A22334889091BF0CBFC012137481EF019
:104DE000A3FA012136481EF09FFA09E0DFF8D480CB
:104DF00042F20F7283618360D8F80030426103622F
:104E00000023D8F8002042F20F7163602370E26142
:104E1000C4E9031302B0BDEC028BBDE8F08129495F
:104E200042F20F72836183600D6808680121256278
:104E3000E26063602370E0616170C4E9043202B033
:104E4000BDEC028BBDE8F0819FED0F0B01211448F2
:104E500088EE000B1BF0A0FC01211B481EF064FA39
:104E6000BFE79FED0B0B01210D4888EE000B1BF0F7
:104E700093FC012115481EF057FAB2E7AFF300800A
:104E80000000000000408F4000000000004CED409A
:104E90000000000040774B41583D002030230020A7
:104EA000102901203C23002048230020D34D62100C
:104EB0005C2300206023002080EE3600F0400020BC
:104EC000504A0020A8D2012064230020445700202B
:104ED00030B51A4D40F6B83387B004462A689A4276
:104EE00025D80122037881600274F3B11449684621
:104EF0001BF076FD694603A81BF090FD296803A806
:104F00001BF026FE0F491BF0EDFD61691BF0EAFD69
:104F10000D491BF0E7FD01460C481BF0CDFB03A833
:104F20001BF098FD68461BF095FD07B030BD0022D0
:104F3000012381600270037407B030BDA8D2012044
:104F4000583D0020B44D0020682300201029012086
:104F5000037C10B5044686B023B1D0E90123114487
:104F6000C91A41600022237822740BB906B010BD23
:104F7000104968461BF034FD694603A81BF04EFD3E
:104F80000D4B03A819681BF0E3FD0C491BF0AAFDAB
:104F900061691BF0A7FD0A491BF0A4FD0146094801
:104FA0001BF08AFB03A81BF055FD68461BF052FD61
:104FB00006B010BD583D0020A8D20120B44D0020FD
:104FC000702300201029012038B5037C04460D46CB
:104FD00093B90D4AE36812680C49D31A6068E2601D
:104FE000A1FB03139B09B0FBF3F00023A84263600D
:104FF0002CBF401B002038BD1CF072F80146204633
:10500000FFF7A6FFE5E700BFA8D20120D34D62104D
:105010005B4B1B6830B5044683B08362092938D8DE
:10502000DFE801F04716163705272737055790F8B0
:105030005130042B0AD00020A17C84F8520084F85F
:105040005310002A78D1042384F8513003B030BDC6
:1050500090F85130022BF9D0407C002184F85200A6
:1050600084F85310002A5FD1022384F8513003B032
:1050700030BD90F85130032BE8D00020A17C84F89B
:10508000520084F85310002A5ED1032384F8513073
:10509000DCE790F85130002BD8D00025026C39495C
:1050A000A0F85250384800951BF054FB84F851503A
:1050B000CCE790F85130012BC8D0407C002184F817
:1050C000520084F85310002A4ED1012384F8513045
:1050D000BCE790F85130052B21D0417CB6EE084B4F
:1050E00006EE101A817C07EE101AB8EEC66BB8EE09
:1050F000C77B26EE046B9FED205BFCEEC66B27EEB4
:10510000057B16EE900A84F85200FCEEC77B17EE82
:10511000901A84F85310FAB9052384F8513000230B
:1051200084F8303003B030BD0220226C1549009065
:1051300015481BF00FFB97E70420226C11490090E3
:1051400011481BF007FB7EE70320226C0D490090FD
:105150000D481BF0FFFA98E70520226C09490090E2
:1051600009481BF0F7FAD7E70120226C05490090A7
:1051700005481BF0EFFAA8E79A9999999999E93FA0
:10518000A8D201207C23002010290120F0B587B08F
:105190001EF0A4F8C4B2632C00F0A280672C00F0CB
:1051A000C9806C2C00F0AC806D2C73D06E2C00F09C
:1051B000D180A4F10A03692B00F2A680DFE813F086
:1051C0008E00A400A4008E00A400A400A400A400EB
:1051D000A400A400A400A400A400A400A400A400AF
:1051E000A400A400A400A400A400A400A400A4009F
:1051F000A400A400A400A400A400A400A400A4008F
:10520000A400A400A400A400A400A4008E003F01F8
:1052100061010C0115011A0130017A018901310285
:10522000A400A400A400A400A400A400A400A4005E
:10523000A400A400A400A400A400A400A400A4004E
:10524000A400A400A400A400A400A400A400A4003E
:105250007401A400A400A400A400A400A400A4005D
:10526000A400A400A400A400A400A400A400A4001E
:10527000A400A400A400A400A400A400A400A4000E
:10528000A400A400A400A400A400A400A400A400FE
:10529000EC015A021DF0DEFF002835DD1EF01EF87D
:1052A0003038A44CC3B2A4496846052B9CBF226881
:1052B00013701BF095FB694603A81BF0AFFB236836
:1052C00003A819781BF01CFC01469C481BF0F4F95C
:1052D00003A81BF0BFFB68461BF0BCFB07B0F0BD8A
:1052E000974C1B219748237883F0010323701EF00D
:1052F0001BF82178914807B0BDE8F0401BF002BAD6
:105300001DF0A8FF002840DC8F498C48FDF726FBE4
:10531000214600230A2289481BF02AFA8B49874834
:10532000FDF71CFB01E01DF0D9FF1DF093FF0028E5
:10533000F9D1D3E71DF08EFF00287FF73AAF1DF0BB
:10534000CDFF3038C1B20529C8D801228048FFF707
:105350005FFEC3E71DF07EFF20B11DF059FFC0B214
:1053600032282BD07B4C7C4A23787C4983F0010384
:105370007248237082F88334FDF7F0FA21786F4881
:1053800007B0BDE8F0401BF0BDB91DF0A7FFC0B2EB
:10539000A0F13004E3B2052BA0D800EB80036C4AE7
:1053A0006F4903EB830365485B00603B1374FDF7B3
:1053B000D5FA3221614804FB01F19CE71DF08EFF14
:1053C000684C694923785D4883F001032370FDF739
:1053D000C5FA217859488EE70023012163481A460F
:1053E00007B0BDE8F04008F087BD012300225F4808
:1053F0001946F5E75E4C00235C4E0F21251D1A4629
:10540000304608F079FDA5423FF468AF002314F858
:10541000011F30461A4608F06FFDA542F6D15DE740
:10542000534C0F21514E251D01230022304608F018
:1054300063FDAC423FF452AF14F8011FF4E74D4E48
:105440001BF04EFE04463578002D00F02A81012D18
:1054500000F04181022D00F04B811BF041FE4649D6
:1054600005463648FDF77AFA291B00230A223348FD
:105470001BF07EF94149314807B0BDE8F040FDF727
:105480006DBA3F4E1BF02CFE04463578002D00F01F
:10549000FB80012D00F01281022D00F036811BF0FF
:1054A0001FFE38490546DCE74FF0E023364AC3F8D3
:1054B0000C2D13E72E4C0F212C4E251D0123BB2252
:1054C000304608F019FDA5423FF408AF14F8011F5B
:1054D000F4E7274D0023254F0F212E1D2C4638467B
:1054E0001A4608F009FDA64208D0002314F8011F4F
:1054F00038461A4608F000FDA642F6D12349244A50
:10550000244B48681268A3FB02329623920C03FBDB
:1055100002F24B681B1A9A42FBD80F21134E01234B
:10552000BB22304608F0E8FCAC423FF4D7AE15F899
:10553000011FF4E720CF0120581A00201029012074
:105540001AD30120201A0020741C00209C1C00206B
:1055500014C4012016D3012070760120881A00207F
:105560003C1A002017D30120701A002028D10120F6
:10557000E0210020FED201207C1B0020841B0020A3
:10558000FFD20120281C00200400FA05001000E0D2
:105590000C29012083DE1B4362496348FDF7DEF9D5
:1055A0006249634800230C6842F20F724360C46191
:1055B0000C680370836004620C68C0E90323C0E9CF
:1055C00005235C48C4610C68436003708360046217
:1055D0000C68C0E90323C0E905235748C4610C687F
:1055E000436003708360C0E90323C0E905230462BC
:1055F00052480C684360C4610C68037004628360A5
:105600000C680968C0E90523C0E903234C48C0E9D8
:10561000032343600370426183600162C0E9063482
:105620005CE6484C8823012547493F4884F8A5306B
:1056300084F8305184F82F51FDF790F9294620461F
:1056400008F022F9D8B941493748FDF787F9E02336
:10565000012535483E4984F8A53084F8305184F856
:105660002F51FDF77BF92946364808F00DF920B98E
:10567000364900E7374C3849A4E63849FBE6374954
:105680002948FDF76BF9E2E735492748FDF766F948
:1056900001232A460E21334808F02EFC01233370E3
:1056A000FDE631492048FDF759F901232A460F212B
:1056B0002C4808F021FC01233370CEE62B491A4810
:1056C000FDF74CF92B46ED220E21264808F014FC7C
:1056D00002233370E3E626491348FDF73FF92B46D2
:1056E000ED220F211F4808F007FC02233370B4E6B7
:1056F00020490D48FDF732F900230F2119481A46B9
:1057000008F0FAFB00233370A7E61B490648FDF7B3
:1057100025F900230E2113481A4608F0EDFB00235B
:105720003370BCE6A01A002010290120A8D2012065
:10573000C8CE0120ECCE012038D101205CD101205F
:1057400008CE0120642B0120301C0020481C0020C2
:10575000601C00201BD30120C01A0020501C002018
:10576000881B002028D10120D81A0020B41B00205B
:10577000081B00204C1B0020F81B00201A4A30B5E3
:1057800092F8983083B0C3F19603092B1BDC01AB70
:1057900018461EF053FBC1B2022912D0032908BFDC
:1057A000042101221148FFF733FC0D201BF0ECFC13
:1057B00001460D20B1FA81F149091BF0BBFC03B091
:1057C00030BD0521EDE792F88C4001AB92F88D10C9
:1057D000002014440131657811446070184621F0AE
:1057E0009DF865700346D3E728D0012014C401203A
:1057F0002DE9F047DFF8A89241F28832416A82B081
:10580000D9F8003004465B1A934200F2AC80D9F814
:10581000003040F6B832A16A5B1A934200F28F80E2
:10582000D9F80030216AA28D5B1A9A4275D2D9F854
:105830000030274604F1130604F11F0ADFF86482E2
:10584000236297F84C30023B012B03D894F82E309A
:10585000002B69D197F84D302046217CC3EB0332F1
:1058600097F84E50A8FB02320123D20901FB02F245
:10587000A8FB02127178C2F3CF1208F03DFB217C25
:10588000C5EB053235460123A8FB02022046D209AA
:1058900001FB02F2A8FB0212B178C2F3CF1208F0AA
:1058A0002BFB0123002215F8031F204608F024FBE0
:1058B000554507F105072E46C3D194F82E3083F0E5
:1058C000010384F82E3043BBD9F800200121A08DBC
:1058D00084F82F3002EB5003628E84F83010A3EB73
:1058E00052036363D9F800209A421AD9012327464C
:1058F00004F10C082646DFF8ACA184F82F3097F8A5
:1059000050300537002B40F09C800336B045F6D16F
:1059100094F82F302BB1636B3FE094F83030002BBC
:1059200036D102B0BDE8F087F51C16F8011F01233F
:105930000022204608F0E0FAAE42F6D1B8E7D9F8E6
:10594000002094F85130A262002B3FF469AF00258B
:10595000226C5149A4F85250504800951AF0FAFEB2
:1059600084F851505CE790F84C30032B3FF44FAF74
:10597000817C0325002280F84E1080F84D20464996
:105980000095C26B45481AF0E5FE84F84C503EE79E
:1059900094F82F20636B002AA4D0628ED9F80010EF
:1059A00013448B42BDD24FF0000A264604F1130582
:1059B00004F11F0984F830A096F85030DFF8E48035
:1059C0004BB9EF1C4F453D4606F10506A9D096F8A8
:1059D0005030002BF5D096F84C30023B012B4FD9BC
:1059E00096F84D30204696F84E70C3EB0332697836
:1059F000A8FB0232237CD20903FB02F2A8FB02328D
:105A00000123C2F3CF1208F077FAA978C7EB073267
:105A10002F462046A8FB0232237CD20903FB02F268
:105A2000A8FB02320123C2F3CF1208F065FA01236A
:105A3000002217F8031F204608F05EFA86F850A0EF
:105A4000C0E7E57C2046317D0123002208F054FAAE
:105A5000717D01232046002208F04EFAB17DC5EB8E
:105A600005322046AAFB0232237CD20903FB02F254
:105A7000AAFB02320123C2F3CF1208F03DFA44E739
:105A8000EF1C15F8011F01230022204608F034FA0C
:105A9000BD42F6D1D2E700BF7C23002010290120AF
:105AA000A8D201208180808006EE902A00F58862CD
:105AB0002DE9F043B8EEE61B06EE903A044600F5F9
:105AC0008467B8EEE64B00F5826004F586662DED3E
:105AD000028B83B0C4F84814DDED0C6ADDED0F5A7B
:105AE000B8EEE62BDDED0D6AB8EEE55B119BB8EE86
:105AF000E63BDDED0E6A9FEDAA8BB8EEE66B9FEDFF
:105B0000AA7B9FEDAB0BA6EE087BDDED106AB8EE2D
:105B1000E66B25EE005B26EE006B21EE001B24EE0B
:105B2000004B32EE052B33EE063B9FEDA30B80EDD1
:105B3000001B07ED024BB4EEC07B02ED025BF1EE01
:105B400010FA87ED002BA8BF37EE407B82ED006B8B
:105B5000B5EEC07B06ED023BF1EE10FA03D59FEDEA
:105B6000966B37EE067B94F883249FED956B27EEBA
:105B7000067B86ED007BC4F86834002A40F0848000
:105B8000954D2A68D4F80014521AC4F888242A685B
:105B9000C4F800242A68C4F8902494F8812412B927
:105BA000012284F88424012213F0010503F0020885
:105BB00003F0040984F8822484F88124C3F3C10229
:105BC000C4F8782431D0B8F1000F3DD0B9F1000FFE
:105BD00049D02DB3D4F87834012B40F39A8016EDD8
:105BE000027BB5EE407BF1EE10FA00F08B8004F5FD
:105BF0008E6597ED000B80EE070B1DF0F1FD9FED1C
:105C0000727B20EE070B012194F8833485ED000BA5
:105C100084F88014002B40F09280704C84ED000BCF
:105C200003B0BDEC028BBDE8F08311216C481DF080
:105C30007BFB29466B481AF065FD04216A481DF07C
:105C400073FBB8F1000FC1D1102168481DF06CFB47
:105C5000414664481AF056FD042163481DF064FB78
:105C6000B9F1000FDCD1132161481DF05DFB00216B
:105C70005C481AF047FD04215B4803B0BDEC028B81
:105C8000BDE8F0431DF050BB534D022159481DF0B3
:105C90004BFB002329680A2252481AF069FDB4F828
:105CA000982455494F481AF055FDD4F80034296816
:105CB0000A224C48C91A00231AF05AFD01214F4804
:105CC0001DF032FBD4F848144D4B4648A3FB01238A
:105CD0004FF47A729B0902FB13114A4B0A22A3FB71
:105CE00001310023C9081AF043FD012143481DF08A
:105CF0001BFB02213B4896ED000B1AF04DFDD4F83A
:105D000068343EE79FED2A6B37EE067B06ED027B9B
:105D10006DE794F88334002B3BD00E213A4804F50C
:105D20008E651DF001FBD4F878142E481AF0EAFCB9
:105D300095ED000B9FED267B20EE070B63E72F48C8
:105D4000264C1DF0F1FA0221264895ED000B1AF0C1
:105D500023FDB6EE007B94ED006B95ED000B36EE67
:105D6000475BB4EEC50BF1EE10FA07D936EE077BB0
:105D7000B4EEC70BF1EE10FAFFF650AF2349194805
:105D80008DED000B53EC162B1AF0E4FC95ED000B97
:105D900044E718491348FCF7E1FDBEE7AFF3008084
:105DA0002D431CEBE2361A3F0000000000208C401F
:105DB0007B14AE47E17A843F000000000020AC4035
:105DC0009A9999999999B93FF8C1631ADCA54CC081
:105DD000CDCCCCCCCCCCEC3FA8D20120E0740120BF
:105DE0004822002010290120F82300205C220020F6
:105DF00070220020583D002034220020B44D0020A5
:105E0000D34D6210CDCCCCCC842200209422002033
:105E100070B5044686B01BF063F9D4F80834A56861
:105E2000C01A072DC4F88C046FD03C2D40F0D180EF
:105E3000E07FA27F617F42EA002294F8235094F829
:105E4000330094F8223041EA022194F8322043EAE8
:105E5000052394F8315042EA002294F8570094F850
:105E600055E045EA022594F8562094F82AC042EA03
:105E7000002294F82F004EEA022E94F82B204CEAD0
:105E8000022C94F82E2042EA002294F8540040EAB2
:105E90000E20059094F8300040EA0520029094F816
:105EA000270094F8265045EA002594F8290040EA96
:105EB0000C2094F82DC04CEA022C94F83B2004925C
:105EC00094F83A20039294F8212042EA032294F8AD
:105ED000253043EA052394F8245045EA032394F837
:105EE000205045EA0222257F45EA012194F82C50F2
:105EF00045EA0C25019594F8285045EA00252046EE
:105F00000095FFF7D1FD06B070BD94F8333094F8DA
:105F1000320094F8312040EA032094F8303094F8AD
:105F2000375042EA002294F8361094F8830443EA8A
:105F3000022394F83B2041EA0521E57E06EE103A63
:105F400094F83A3043EA022394F83520B8EEC66B51
:105F500042EA012294F8391041EA032194F83430DE
:105F600043EA022304F58C6205EE103A94F83830C7
:105F70009FED377BB8EEC55B43EA0123A17E26EE99
:105F8000076B41EA0521384D25EE075B07EE103A15
:105F9000637EB8EEC77B43EA0123217E9FED2E4B43
:105FA00041EA032694F82F3027EE047B84F84C3422
:105FB00004F58A6383ED005B02ED026B82ED007BEA
:105FC000F0B92A682B68C4F80424C4F8943406B0E5
:105FD00070BD112125481DF0A7F900231022E9B258
:105FE00023481AF0C5FB052122481DF09DF9002326
:105FF000102221791E4806B0BDE870401AF0B8BBE7
:1060000002211D481DF090F9296800230A22184832
:106010001AF0AEFB0C2119481DF086F9D4F80434AF
:1060200029680A221248C91A00231AF0A1FB01218B
:1060300013481DF079F907EE906A02210C48B8EE7A
:10604000677B9FED070B87EE000B1AF0A5FBB8E707
:1060500048AFBC9AF2D77A3EFCA9F1D24D62503FCC
:106060000000000000408F40A8D20120182200202C
:10607000102901202C220020583D00200822002059
:10608000B44D0020B52970B50D4604462BD06229C9
:1060900018D02378022B07D0033B052B11D8DFE85B
:1060A00003F04B5E728BA3B3237C0321627C2B44F1
:1060B00065602170DBB21A44237494F883346274EF
:1060C0007BBB70BD0378012BE4D10221002290F844
:1060D000833401700282002BF3D070497048BDE810
:1060E0007040FCF73BBC4369002BD2DA01230370FC
:1060F0001AF0F6FF94F88334C4F80804002BE0D0BB
:1061000068496748FCF72AFC674900230A220968A6
:1061100063481AF02DFB65496148BDE87040FCF703
:106120001DBC63481DF000F92946002310225C487D
:10613000BDE870401AF01CBB237C0421627C2B4418
:10614000A5602170DBB21A44237494F8833462741E
:10615000002BB6D056495248FCF700FCE4E7237CFC
:106160000520627C2B4494F88314E560DBB2207038
:106170001A44237462740029A3D04E494848BDE8EC
:106180007040FCF7EBBB237C0620E1682B44627C6B
:1061900001EB05212070DBB20020E1601A4494F885
:1061A000831460612374627400298AD042493C4898
:1061B000BDE87040FCF7D2BB237CEAB2617C13449B
:1061C000DBB21944237463696174E11801330A7600
:1061D00094F883246361002A50D1E2689A427FF4E4
:1061E00070AF0723237070BD237CAB421AD1082205
:1061F00094F883342270002B3FF463AF2F49284872
:10620000BDE87040FCF7AABB637CAB4220D194F898
:106210008334002B3CD12046FFF7FAFD4FF0FF33CB
:10622000636170BD00254FF0FF331E4963611C4858
:106230002570FCF793FB1C492B460A220968184875
:106240001AF096FA1E491648BDE87040FCF786BB66
:1062500000254FF0FF331349636111482570FCF7A7
:106260007DFB11492B460A2209680D481AF080FA75
:1062700014490B48BDE87040FCF770BB0848124950
:10628000FCF76CFB294606481AF03CFA6369A4E760
:106290000E490348FCF762FBBDE700BFEC2200207B
:1062A00010290120583D0020A8D20120E022002022
:1062B000F4220020F8220020FC22002000230020ED
:1062C000042300201C230020B44D002018230020AC
:1062D0009FED9D7B90ED042B9FED9D3B9FED9E1BC5
:1062E00022EE072B90ED164B90ED0E5B22EE032B6A
:1062F00024EE014B25EE075B90ED086B10B532EEF6
:10630000067B044680ED0A4B37EE447B80ED0E5B46
:10631000B5EEC07B80ED042BF1EE10FA03D59FEDB6
:10632000904B37EE047B9FED904BB4EEC47BF1EEC7
:1063300010FAC0F2F7809FED8E4BB4EEC47BF1EE05
:1063400010FA00F2EF80B1EE477B9FED854BB4EE83
:10635000C47BF1EE10FAC8BF37EE447B9FED864B4D
:1063600084ED067BB4EEC47BF1EE10FA05D59FED0B
:106370007C4B37EE047B84ED067BB0EEC74B9FED84
:10638000803BB4EEC34BF1EE10FA40F1D7809FEDA5
:106390006E3BA7EE036B9FED724B9FED777BB4EEE8
:1063A000C46BF1EE10FAC8BF36EE446BB4EEC76BA7
:1063B00084ED086BF1EE10FA05D59FED697B36EEA2
:1063C000076B84ED086BB7EEC55B32EE067B94ED90
:1063D000124BB7EEC55A9FED6C1B34EE454B9FED4B
:1063E000602B24EE016BB4EEC27B94ED023B9FED7B
:1063F000680BF1EE10FAA3EE006BC8BF37EE427BDC
:1064000084ED004BB5EEC07BF1EE10FA84ED026B2B
:1064100003D59FED536B37EE067B0C2162489FED51
:106420005E6B27EE067B84ED0C7B1CF07DFF5F48E6
:106430001AF074F909215E481CF076FF02215B48CE
:1064400094ED160B1AF0A8F958481AF067F90A21CA
:1064500058481CF069FF0221544894ED120B1AF0C1
:106460009BF952481AF05AF90C2153481CF05CFF72
:106470004E481AF053F9132150481CF055FF0221E1
:106480004A4894ED040B1AF087F948481AF046F987
:1064900006214B481CF048FF0221444894ED0E0BA6
:1064A0001AF07AF941481AF039F90F2145481CF0E1
:1064B0003BFF3E481AF032F90F2143481CF034FFED
:1064C00002213A4894ED080B1AF066F937481AF0A1
:1064D00025F90B213D481CF027FF0221334894ED9C
:1064E000000B1AF059F931481AF018F911213848FF
:1064F0001CF01AFF02212D4894ED020B1AF04CF902
:106500002A481AF00BF90E2132481CF00DFF022127
:10651000264894ED0C0B1AF03FF92448BDE81040D2
:106520001AF0FCB89FED124BB4EEC47B9FED0C4B00
:10653000F1EE10FA05DD34EE477B06E79FED183BE0
:1065400027E737EE047BFEE69A9999999999B93F26
:10655000399D52A246DF91BF399D52A246DF913F3D
:10656000182D4454FB211940182D4454FB21F9BF28
:10657000182D4454FB21F93F182D4454FB2119C018
:106580000AD7A3703D0AC73F333333333333D33F86
:10659000666666666666E63FF8C1631ADCA54C402F
:1065A0009A9999999999C93FE426002010290120C8
:1065B000F4260020002700200C2700201C270020A4
:1065C00030270020382700204827002058270020A7
:1065D00064270020782700202DE9F043784C85B00F
:1065E0001AF07EFD01467748FEF772FC94F8985049
:1065F000C5F19605012D00F39D80002D00F38B80E1
:10660000714B012293F8811483F8802409B983F82F
:1066100084246E4E01216E4C326883F88114C3F8D5
:10662000902494F86030002B34D16A481DF002FCAD
:10663000694D94F8603085ED000B002B59D1674B04
:10664000042B00F0B280664A403595ED000B9FEDBB
:106650005A7B137820EE070B85ED000B002B51D0F1
:106660000A22002331685F481AF082F85E495D48CB
:106670001AF070F801A820F003FA01AB02381844B0
:106680001DF0DCFB014657481AF03CF855481AF05B
:1066900045F837E0554B564D1B78564A2946564823
:1066A000D25CFCF743F955481DF0C4FB494884ED22
:1066B000120B1DF0BFFBB5F90030204606EE103A74
:1066C000B5F9023007EE103AB8EEC66BB8EEC77BEC
:1066D00084ED160B84ED046B84ED0E7BFFF7F8FD63
:1066E00094F86030002BA0D03B4BD4E90C01C3E9F7
:1066F000000194ED020B424D394A137885ED000BF1
:10670000002BADD11AF0ECFC01462E48FEF720FC20
:1067100005B0BDE8F08394F89550002394F89610E6
:1067200001A8254401316E7821446B7020F0F6F801
:106730006E7065E794F894604FF0000894F8951037
:106740002644244F013196F801903846214486F8BA
:10675000018020F0E3F8022D86F80190DBD094F858
:10676000941007F1080094F8936001312644214405
:1067700096F8019086F8018020F0D0F8042D86F874
:106780000190C8DD94F8915094F8920025440130AE
:106790006E78204485F801801DF050FB6E7094F8EF
:1067A00098503861C5F1960527E7144840351DF02B
:1067B00041FBA1E7AFF30080CDCCCCCCCCCCEC3FFF
:1067C00028D00120A4C4012070760120A8D2012085
:1067D0007075012034810120A07A0120C07D012044
:1067E00016D3012010290120781700202839012014
:1067F000FCCD0120FC2100208CCD01203C8101201A
:10680000E07A01200B484FF0FF0C01210F220378A2
:1068100080F80DC0437190F801C0837283780172D3
:106820004FF4967180F806C080F80BC0C3710373F3
:106830001AF0F0BE003C012070B501201AF040FDB6
:1068400004460220E4B21AF03BFD40F6641360F304
:106850000F24A4B29C42174C1BD0022201211648DF
:1068600004F10F05C4F596761AF0D4FE0F224FF40A
:10687000967112481AF0CEFEA0191AF021FD04F804
:10688000010BAC42F8D12A210D48BDE870401CF044
:106890004BBD04F10F05C4F59676A0191AF010FD52
:1068A00004F8010BAC42F8D122210648BDE8704043
:1068B0001CF03ABD003C012058270120A4210020F3
:1068C000EC1F002018200020D0E90021C3681268C6
:1068D000096810B41942846802EA040234D0037CC7
:1068E00003F003030ABB43F008039A08013B027458
:1068F0000D2B0ED8DFE803F0100722070D1C101037
:106900001C0D072207104269037E013A01334261E0
:1069100003765DF8044B70474269037E01325DF8EF
:10692000044B013342610376704743F00403DAE716
:1069300043695DF8044BC83B4361704743695DF8A8
:10694000044BC83343617047037C03F00303002A00
:10695000CBD043F00403C8E70B4610B5362800F24D
:106960009782DFE810F08C028202790270026702DF
:106970005E0255024C0243023A02310228021F0213
:10698000BF01B601AD01A4019B0192018901800103
:1069900077016E0165015C0153014A014101380133
:1069A0002F0126011D0113010901FF00F500EB0075
:1069B000E100D700CD00C300B900AF00A5009B00E7
:1069C000910087007D00730069005F0055004B0057
:1069D00041003700C84C0422C8493620C4F8D830DA
:1069E0001AF02AFE012010BDC34C0422C4493520F0
:1069F000C4F8D4301AF020FE012010BDBE4C042291
:106A0000C0493420C4F8D0301AF016FE012010BD61
:106A1000B94C0422BC493320C4F8CC301AF00CFE27
:106A2000012010BDB44C0422B8493220C4F8C8304B
:106A30001AF002FE012010BDAF4C0422B4493120EF
:106A4000C4F8C4301AF0F8FD012010BDAA4C04228D
:106A5000B0493020C4F8C0301AF0EEFD012010BD5E
:106A6000A54C0422AC492F20C4F8BC301AF0E4FD38
:106A7000012010BDA04C0422A8492E20C4F8B83033
:106A80001AF0DAFD012010BD9B4C0422A4492D20F0
:106A9000C4F8B4301AF0D0FD012010BD964C042289
:106AA000A0492C20C4F8B0301AF0C6FD012010BD5A
:106AB000914C04229C492B20C4F8AC301AF0BCFD48
:106AC000012010BD8C4C042298492A20C4F8A8301B
:106AD0001AF0B2FD012010BD874C042294492920F0
:106AE000C4F8A4301AF0A8FD012010BD824C042285
:106AF00090492820C4F8A0301AF09EFD012010BD56
:106B00007D4C04228C492720C4F89C301AF094FD57
:106B1000012010BD784C042288492620C4F8983002
:106B20001AF08AFD012010BD734C042284492520EF
:106B3000C4F894301AF080FD012010BD6E4C042280
:106B400080492420C4F890301AF076FD012010BD51
:106B5000694C04227C492320C4F88C301AF06CFD67
:106B6000012010BD644C042278492220C4F88830EA
:106B70001AF062FD012010BD5F4C042274492120EF
:106B8000C4F884301AF058FD012010BD5A4C04227C
:106B900070492020C4F880301AF04EFD012010BD4D
:106BA000554C04226C491F20E3671AF045FD012073
:106BB00010BD514C042269491E20A3671AF03CFD08
:106BC000012010BD4C4C042265491D2063671AF05A
:106BD00033FD012010BD484C042262491C2023676C
:106BE0001AF02AFD012010BD434C04225E491B20EF
:106BF000E3661AF021FD012010BD3F4C04225B49E1
:106C00001A20A3661AF018FD012010BD3A4C042288
:106C10005749192063661AF00FFD012010BD364C4C
:106C200004225449182023661AF006FD012010BDE5
:106C3000314C042250491720E3651AF0FDFC012075
